{
  "contractName": "PatientRecord",
  "abi": [
    {
      "inputs": [],
      "payable": false,
      "stateMutability": "nonpayable",
      "type": "constructor"
    },
    {
      "anonymous": false,
      "inputs": [
        {
          "indexed": false,
          "internalType": "uint256",
          "name": "id",
          "type": "uint256"
        },
        {
          "indexed": false,
          "internalType": "string",
          "name": "content",
          "type": "string"
        }
      ],
      "name": "RecordCreated",
      "type": "event"
    },
    {
      "constant": true,
      "inputs": [],
      "name": "recordCount",
      "outputs": [
        {
          "internalType": "uint256",
          "name": "",
          "type": "uint256"
        }
      ],
      "payable": false,
      "stateMutability": "view",
      "type": "function"
    },
    {
      "constant": true,
      "inputs": [
        {
          "internalType": "uint256",
          "name": "",
          "type": "uint256"
        }
      ],
      "name": "records",
      "outputs": [
        {
          "internalType": "uint256",
          "name": "id",
          "type": "uint256"
        },
        {
          "internalType": "string",
          "name": "content",
          "type": "string"
        }
      ],
      "payable": false,
      "stateMutability": "view",
      "type": "function"
    },
    {
      "constant": false,
      "inputs": [
        {
          "internalType": "string",
          "name": "_content",
          "type": "string"
        }
      ],
      "name": "createRecord",
      "outputs": [],
      "payable": false,
      "stateMutability": "nonpayable",
      "type": "function"
    }
  ],
  "bytecode": "0x60806040526000805534801561001457600080fd5b5060408051808201909152601981527f5374617274206f66204d65646963616c205265636f7264732e00000000000000602082015261005b906001600160e01b0361006016565b6101eb565b600080546001908101808355604080518082018252828152602080820187815293865284815291909420845181559151805192936100a693908501929190910190610150565b509050507ff5b5ef356605bcbd60c8f9554178f47cf88fd5faa38abfa9328f7c0d4aeaf330600054826040518083815260200180602001828103825283818151815260200191508051906020019080838360005b838110156101125781810151838201526020016100fa565b50505050905090810190601f16801561013f5780820380516001836020036101000a031916815260200191505b50935050505060405180910390a150565b828054600181600116156101000203166002900490600052602060002090601f016020900481019282601f1061019157805160ff19168380011785556101be565b828001600101855582156101be579182015b828111156101be5782518255916020019190600101906101a3565b506101ca9291506101ce565b5090565b6101e891905b808211156101ca57600081556001016101d4565b90565b610410806101fa6000396000f3fe608060405234801561001057600080fd5b50600436106100415760003560e01c80633446106714610046578063900407bc146100e2578063db70504b146100fc575b600080fd5b6100636004803603602081101561005c57600080fd5b50356101a4565b6040518083815260200180602001828103825283818151815260200191508051906020019080838360005b838110156100a657818101518382015260200161008e565b50505050905090810190601f1680156100d35780820380516001836020036101000a031916815260200191505b50935050505060405180910390f35b6100ea61024a565b60408051918252519081900360200190f35b6101a26004803603602081101561011257600080fd5b81019060208101813564010000000081111561012d57600080fd5b82018360208201111561013f57600080fd5b8035906020019184600183028401116401000000008311171561016157600080fd5b91908080601f016020809104026020016040519081016040528093929190818152602001838380828437600092019190915250929550610250945050505050565b005b600160208181526000928352604092839020805481840180548651600296821615610100026000190190911695909504601f810185900485028601850190965285855290949193929091908301828280156102405780601f1061021557610100808354040283529160200191610240565b820191906000526020600020905b81548152906001019060200180831161022357829003601f168201915b5050505050905082565b60005481565b6000805460019081018083556040805180820182528281526020808201878152938652848152919094208451815591518051929361029693908501929190910190610340565b509050507ff5b5ef356605bcbd60c8f9554178f47cf88fd5faa38abfa9328f7c0d4aeaf330600054826040518083815260200180602001828103825283818151815260200191508051906020019080838360005b838110156103025781810151838201526020016102ea565b50505050905090810190601f16801561032f5780820380516001836020036101000a031916815260200191505b50935050505060405180910390a150565b828054600181600116156101000203166002900490600052602060002090601f016020900481019282601f1061038157805160ff19168380011785556103ae565b828001600101855582156103ae579182015b828111156103ae578251825591602001919060010190610393565b506103ba9291506103be565b5090565b6103d891905b808211156103ba57600081556001016103c4565b9056fea265627a7a72315820a21ba89c6017e676c02606b48b7aac352aee1e4260ed528d3e061e6c576fb48064736f6c63430005100032",
  "source": "// SPDX-License-Identifier: MIT\r\npragma solidity >=0.4.21 <0.6.0;\r\n\r\ncontract PatientRecord {\r\n  uint public recordCount = 0;\r\n\r\n  struct Record {\r\n    uint id;\r\n    string content;\r\n  }\r\n\r\n  mapping(uint => Record) public records;\r\n\r\n  event RecordCreated(\r\n    uint id,\r\n    string content\r\n  );\r\n\r\n  constructor() public {\r\n    createRecord(\"Start of Medical Records.\");\r\n  }\r\n\r\n  function createRecord(string memory _content) public {\r\n    recordCount++;\r\n    records[recordCount] = Record(recordCount, _content);\r\n    emit RecordCreated(recordCount, _content);\r\n  }\r\n\r\n}\r\n",
  "sourcePath": "C:/Users/coliw/Documents/project-final/contracts/PatientRecord.sol",
  "compiler": {
    "name": "solc",
    "version": "0.5.16+commit.9c3226ce.Emscripten.clang"
  },
  "schemaVersion": "3.3.4",
  "updatedAt": "2021-04-04T18:42:14.230Z",
  "networkType": "ethereum",
  "devdoc": {
    "methods": {}
  },
  "userdoc": {
    "methods": {}
  }
}